:020000040800F2
:1000000000300020A10F0008E90F0008E90F0008E8
:10001000E90F0008E90F0008E90F000800000000E0
:10002000000000000000000000000000E90F0008D0
:10003000E90F000800000000E90F0008E90F0008C0
:1000400000000000000000000000000000000000B0
:1000500000000000000000000000000000000000A0
:100060000000000000000000000000000000000090
:100070000000000000000000000000000000000080
:100080000000000000000000000000000000000070
:100090000000000000000000000000000000000060
:1000A0000000000000000000000000000000000050
:1000B0000000000000000000000000000000000040
:1000C0000000000000000000000000000000000030
:1000D0000000000000000000000000000000000020
:1000E0000000000000000000000000000000000010
:1000F0000000000000000000000000000000000000
:1001000000000000000000000000000000000000EF
:1001100000000000000000000000000000000000DF
:1001200000000000000000000000000000000000CF
:1001300000000000000000000000000000000000BF
:1001400000000000000000000000000000000000AF
:10015000000000000000000000000000000000009F
:10016000000000000000000000000000000000008F
:10017000000000000000000000000000000000007F
:08018000000000000000000077
:100188000348044B834202D0034B03B1184770471E
:10019800000000200000002000000000054806497B
:1001A800091A891001EBD171491002D0034B03B130
:1001B80018477047000000200000002000000000E1
:1001C80010B5064C237843B9FFF7DAFF044B13B197
:1001D8000448AFF300800123237010BD0000002005
:1001E80000000000EC0F000808B5044B1BB10449DF
:1001F8000448AFF30080BDE80840CFE700000000E6
:1002080004000020EC0F000870B50D4E0D4D761B54
:10021800B61006D00024013455F8043B9847A6428E
:10022800F9D1094E094D761B00F0DCFEB61006D058
:100238000024013455F8043B9847A642F9D170BD13
:100248004C1000084C100008501000084C10000812
:1002580010B5441E14F8010F00B910BD00F0E6F8FF
:10026800F8E7000007B54FF0FF3308480193FFF7A0
:10027800EFFF00F0CDF800F0D2F8019B0133FCD07D
:10028800034803B05DF804EBFFF7E2BF3C10000839
:100298004410000808B500F019F800F057F800F00D
:1002A80093F8682000F0C2F8652000F0BFF86C20D1
:1002B80000F0BCF86C2000F0B9F86F2000F0B6F838
:1002C8000A2000F0B3F8FFF7CDFFFCE770B596B051
:1002D800002403264FF4A0230CA80125CDE90C63C4
:1002E8001094149400F0BAF80F23214602A8CDE91F
:1002F8000235CDE90444069400F01AFB114B5A6903
:1003080042F400225A615B69CDE9094603F40023EF
:100318000D4C0193019B07A94FF4C0432046CDE93A
:10032800073500F0ABFB2A4620464FF4005100F099
:1003380067FC2A464FF48041204600F061FC16B065
:1003480070BD00BF001002400008004810B54FF40F
:10035800C06288B00223CDE9032301210323CDE93C
:100368000513164C07230793636943F4003363614D
:10037800636903F40033019303A94FF09040019B94
:1003880000F07CFB0E48DFF83CC04FF41643C0E990
:1003980000C30023C0E90233036183610C23436176
:1003A800A36943F48043A361A36903F480430293E0
:1003B800029B00F06FFD08B010BD00BF00100240A6
:1003C8002400002000380140104B30B55A6942F42F
:1003D80000325A615B6987B003F400330093009BD5
:1003E8004FF480540123CDE901430025032301A9DB
:1003F8004FF09040CDE9035300F040FB2A462146D8
:100408004FF0904000F0FCFB07B030BD00100240F8
:1004180001224FF480514FF0904000F0F1BB0022D0
:100428004FF480514FF0904000F0EABB07B502A9A5
:1004380041F2883301F8010D0122034800F055FD0F
:1004480003B05DF804FB00BF24000020024B1868CD
:10045800421C1A60704700BF1C00002003682DE989
:10046800F743D907044611D423689A0700F1868018
:1004780023681E0700F1F48023685D0700F13B81C3
:10048800E269002A40F0CF81002021E0B7494B689B
:1004980003F00C03042B07D04B6803F00C03082B64
:1004A80019D14B68DB0316D54FF4003393FAA3F246
:1004B800096893FAA3F3B3FA83F303F01F03012245
:1004C80002FA03F30B42CFD06368002BCCD1012092
:1004D80003B0BDE8F0836268B2F5803F24D10B68B1
:1004E80043F480330B60CB6AA06823F00F03034307
:1004F800CB624AB3FFF7AAFF4FF40035074601263F
:1005080095FAA5F30A6895FAA5F3B3FA83F303F00D
:100518001F0306FA03F31342A6D1FFF797FFC01B88
:100528006428EDD90320D3E70B6832B923F480336C
:100538000B600B6823F48023D4E7B2F5A02FF5D124
:1005480043F480230B60CAE7FFF780FF4FF40035C0
:100558000746012695FAA5F30A6895FAA5F3B3FAB2
:1005680083F303F01F0306FA03F313423FF47CAF4F
:10057800FFF76CFFC01B6428ECD9D3E77B494B68B5
:1005880013F00C0F07D04B6803F00C03082B21D194
:100598004B68DF031ED4022393FAA3F2086893FA88
:1005A800A3F3B3FA83F303F01F03012202FA03F360
:1005B800034202D02369934289D10868F82393FA49
:1005C800A3F3B3FA83F26369934020F0F80213436C
:1005D8000B604DE72269012502B395FAA5F3B3FA3A
:1005E80083F303F1845303F584139B0002261D60F3
:1005F800FFF72CFF074696FAA6F30A6896FAA6F3C1
:10060800B3FA83F303F01F0305FA03F31342D4D1BB
:10061800FFF71CFFC01B0228EDD983E795FAA5F365
:10062800B3FA83F303F1845303F584139B00022682
:100638001A60FFF70BFF074696FAA6F30A6896FAC0
:10064800A6F3B3FA83F303F01F0305FA03F3134287
:100658003FF40EAFFFF7FAFEC01B0228ECD961E7A2
:10066800A269424D4248012112B391FAA1F3B3FAAB
:1006780083F303449B0002261960FFF7E7FE074651
:1006880096FAA6F396FAA6F396FAA6F36A6A96FA83
:10069800A6F3B3FA83F303F01F0301FA03F313423B
:1006A8007FF4EAAEFFF7D2FEC01B0228E8D939E78B
:1006B80091FAA1F3B3FA83F303449B0002261A606C
:1006C800FFF7C4FE074696FAA6F396FAA6F396FA3B
:1006D800A6F36A6A96FAA6F3B3FA83F303F01F0344
:1006E80001FA03F313423FF4C7AEFFF7AFFEC01B96
:1006F8000228E8D916E71D49CB69D80033D4CB695D
:1007080043F08053CB61CB6903F080530193019B85
:100718000125184E3368DA052ED5E368012B3BD145
:100728000B6A43F001030B62FFF790FE0226814635
:10073800B046012796FAA6F396FAA6F3002B6AD0DC
:100748000A6A98FAA8F3B3FA83F303F01F0307FAC7
:1007580003F3134256D0002D3FF492AECB6923F039
:100768008053CB618CE60025D3E700BF0010024020
:100778002081901000700040336843F48073336028
:10078800FFF764FE07463368DB05C6D4FFF75EFE55
:10079800C01B6428F7D9C5E633BB0B6A23F00103F5
:1007A8000B620B6A23F004030B62FFF74FFE02266D
:1007B8008146B046012796FAA6F396FAA6F373B3D4
:1007C8000A6A98FAA8F3B3FA83F303F01F0307FA47
:1007D80003F31342BFD0FFF739FE41F28833A0EB91
:1007E80009009842E7D99DE6052B0B6A03D143F02F
:1007F80004030B6294E723F001030B620B6A23F0F6
:10080800040390E7FFF722FE41F28833A0EB0900CA
:1008180098428FD986E696FAA6F34A6A91E796FA3D
:10082800A6F34A6ACDE741494B6803F00C03082B4D
:100838003FF44DAE022A4FF0807351D193FAA3F3DF
:10084800B3FA83F303F1845303F584139B00002266
:100858001A60FFF7FBFD4FF000760746012596FA70
:10086800A6F30A6896FAA6F3B3FA83F303F01F0314
:1008780005FA03F313422DD1D4E908034A68034368
:1008880022F4741213434B604FF0807393FAA3F36E
:10089800B3FA83F303F1845303F584139B004FF0F9
:1008A80000741D60FFF7D2FD0125064694FAA4F3F3
:1008B8000A6894FAA4F3B3FA83F303F01F0305FA62
:1008C80003F313427FF4E0ADFFF7C0FD801B02285D
:1008D800ECD927E6FFF7BAFDC01B0228BFD921E6ED
:1008E80093FAA3F3B3FA83F303F1845303F5841360
:1008F8009B0000221A60FFF7A9FD4FF0007406461E
:10090800012594FAA4F30A6894FAA4F3B3FA83F3DA
:1009180003F01F0305FA03F313423FF4B5ADFFF7E5
:1009280095FD801B0228ECD9FCE500BF00100240B1
:10093800504AF8B5136803F007038B4205461BD3EA
:100948002A68900724D4D2072AD44A4A136803F0A5
:1009580007038B427AD82868430700F1828010F099
:10096800080014D0444A2969536823F4605343EAC1
:10097800C103536000200AE0136823F007030B4308
:100988001360136803F007038B42D9D00120F8BD28
:100998003948AC68436823F0F00323434360D2E747
:1009A8006A68354C012A27D14FF4003393FAA3F033
:1009B800206893FAA3F3B3FA83F303F01F0302FA50
:1009C80003F30342E2D0636823F003031A4362602F
:1009D800FFF73CFD6B68012B064641F288371ED1B4
:1009E800636803F00C03042BAFD0FFF72FFD801BC7
:1009F800B842F5D90320CAE7022A0CBF4FF00073AA
:100A0800022393FAA3F0266893FAA3F3B3FA83F3C5
:100A180003F01F03012000FA03F33342D2E7022B4D
:100A28000FD1636803F00C03082B8ED0FFF70EFD7F
:100A3800801BB842F5D9DDE7FFF708FD801BB842F7
:100A4800D8D8636813F00C0FF6D17EE7136823F04B
:100A580007030B431360136803F007038B4295D118
:100A680079E7054AE968536823F4E0630B43536068
:100A780075E700BF00200240001002402DE9F74F43
:100A8800D1F80080DFF874915A4A002338FA03F449
:100A980002D103B0BDE8F08F012404FA03FA1AEA80
:100AA800080500F09C804C6824F0100BBBF1020F85
:100AB80014D14FEAD30C00EB8C0C03F0070EDCF8D2
:100AC80020604FEA8E0E0F2707FA0EF726EA07076F
:100AD8000E6906FA0EF63E43CCF820604FEA430E44
:100AE8000327066807FA0EF7FF4304F0030C3E409D
:100AF8000CFA0EFC0BF1FF3B4CEA0606BBF1010FAA
:100B0800066011D8866806EA070BCE6806FA0EFC5E
:100B18004CEA0B068660466826EA0A0AC4F3001601
:100B28009E4046EA0A064660C66837408E6806FA5E
:100B38000EF63743E600C76051D5D9F8186046F07D
:100B48000106C9F81860D9F8186023F0030707F1FF
:100B5800804706F0010607F58037019603F0030E7B
:100B6800019EBE684FEA8E0E4FF00F0C0CFA0EFC79
:100B7800B0F1904F26EA0C0C33D01F4EB04232D061
:100B880006F58066B04230D006F58066B0422ED0B9
:100B980006F58066B04214BF0526042606FA0EF64E
:100BA80046EA0C06BE601668EF4314F4803F0CBF9B
:100BB8003E402E431660566814F4003F0CBF3E407A
:100BC8002E435660966814F4801F0CBF3E402E4397
:100BD8009660D668A40254BF3E402E43D6600133C7
:100BE80054E70026DAE70126D8E70226D6E70326E7
:100BF800D4E700BF00040140000400480010024090
:100C08000AB1816170478162704700000268836899
:100C1800C16930B5056914682B43456924F4164445
:100C28002B4324F00C040B43234313605368C4681C
:100C3800056A23F44053234353609468836924F47A
:100C480030642B43234393605D4B9A4212D103F5E2
:100C580058435C4C1B6B03F00303E35CB1F5004F96
:100C680070D1082B6BD8DFE803F09E9E236A9E6A3A
:100C78006A6AA600544B9A422BD103F5E6331B6BE4
:100C880003F44033B3F5803F00F08A8006D8002B88
:100C9800E4D0B1F5004F52D0012019E0B3F5003F80
:100CA80000F08680B3F5403FF3D1B1F5004F61D134
:100CB80041684B0803F1F47303F59043B3FBF1F378
:100CC80000209BB223F00F01C3F342030B43D36010
:100CD80030BD3E4B9A420ED103F5E4331B6B03F44F
:100CE8004023B3F5802F5BD0D1D9B3F5002F5FD067
:100CF800B3F5402FD8E7364B9A420ED103F5E233CD
:100D08001B6B03F44013B3F5801F49D0BFD9B3F56B
:100D1800001F4DD0B3F5401FC6E72E4B9A42B8D1FD
:100D280003F5E0331B6B03F44003B3F5800F37D0B2
:100D3800ADD9B3F5000F3BD0B3F5400FB4E70120B0
:100D48000023BFE7082BA7D801A151F823F000BF63
:100D5800950D0008950D00087D0D0008A10C0008F0
:100D6800950D0008A10C0008A10C0008A10C0008B2
:100D78009F0D000841684B0803F5740303F51053F1
:100D8800B3FBF1F39BB2D3600020A1E741684B08A5
:100D980003F5E103F4E741684B0803F50043EFE787
:100DA800B1F5004FF2D141684B0803F5610385E7BF
:100DB800B1F5004FEFD141684B0803F580337DE76B
:100DC800003801400410000800440040004800407A
:100DD800004C004000500040F8B5069D04461646F9
:100DE8001F462068C26931EA02030CBF01220022B3
:100DF800B24201D0002014E06B1CF3D095B92368EF
:100E08001A6822F4D0721A609A6822F001029A6075
:100E1800202384F8693084F86A30002384F8683025
:100E28000320F8BDFFF712FBC01BA842D9D9E6E79B
:100E380037B504460021C166FFF708FB23681B6825
:100E48001A07054617D423681B685B070AD56FF095
:100E58007E43009300222B464FF480012046FFF783
:100E6800BBFFA0B92023002084F8693084F868000B
:100E780084F86A300CE06FF07E4300930A4603461C
:100E88004FF400112046FFF7A7FF0028DBD003200E
:100E980003B030BD10B5044628B390F8693003F0AC
:100EA800FF020BB980F868202268242384F869308F
:100EB800136823F0010313602046FFF7A7FE0128FB
:100EC80011D023685A6822F490425A609A6822F036
:100ED8002A029A601A6842F0010220461A60BDE8A8
:100EE8001040FFF7A5BF012010BDF7B51F4690F8C9
:100EF8006930202B0D46044611464BD1002D47D0B2
:100F0800002A45D090F86830012B43D0012380F89F
:100F180068300023C366212380F86930FFF796FA0A
:100F28000646A4F85010A4F85210B4F8522092B211
:100F380062B90097334640212046FFF74DFF98B924
:100F4800202384F8693084F868000EE0B4F8523041
:100F58000097013B9BB2A4F852300022334680210F
:100F68002046FFF739FF10B1032003B0F0BDA36896
:100F78002268B3F5805F07D123692BB935F8023BA6
:100F8800C3F308031385D0E72B7813850135CCE725
:100F98000120EAE70220E8E7002103E00B4B5B5859
:100FA800435004310A480B4B42189A42F6D30A4A76
:100FB80002E0002313600432084B9A42F9D3AFF3DE
:100FC8000080FFF721F9FFF765F9FEE754100008E4
:100FD80000000020000000200000002094000020F5
:100FE800FEE70000F8B500BFF8BC08BC9E46704795
:0C0FF800F8B500BFF8BC08BC9E4670476E
:1010040001040802256C75202564202564202564CC
:101014000A00313233340050617373776F72643A6B
:101024000044656E6965640A0057656C636F6D659D
:101034000A00746F756368004265666F72650A0022
:08104400476C697463680A003F
:04104C00F1010008A6
:04105000C9010008CA
:0400000508000FA13F
:00000001FF
